:020000040800F2
:100000009806002089010008D11100085D0C000845
:10001000CD11000891020008E51100080000000061
:10002000000000000000000000000000D9110008DE
:100030009502000800000000D5110008DD1100083D
:10004000A3010008A3010008A3010008A301000800
:10005000A3010008A3010008A3010008A3010008F0
:10006000A3010008A3010008A3010008A3010008E0
:10007000A3010008A3010008A3010008A3010008D0
:10008000A3010008A3010008A3010008A3010008C0
:10009000A3010008A3010008A3010008A3010008B0
:1000A000A3010008A3010008A3010008A3010008A0
:1000B000A3010008A3010008A3010008A301000890
:1000C000A3010008A3010008A3010008A301000880
:1000D000A3010008A3010008A3010008A301000870
:1000E00099020008A3010008A301000800F002F82B
:1000F00000F03AF80AA090E8000C82448344AAF188
:100100000107DA4501D100F02FF8AFF2090EBAE885
:100110000F0013F0010F18BFFB1A43F0010318473B
:10012000E81B0000081C0000103A24BF78C878C102
:10013000FAD8520724BF30C830C144BF04680C60ED
:10014000704700000023002400250026103A28BF35
:1001500078C1FBD8520728BF30C148BF0B60704739
:100160001FB51FBD10B510BD00F058F81146FFF7C0
:10017000F7FF01F065F900F076F803B4FFF7F2FF3E
:1001800003BC00F07DF8000009488047094800479B
:10019000FEE7FEE7FEE7FEE7FEE7FEE7FEE7FEE737
:1001A000FEE7FEE704480549054A064B7047000094
:1001B000E1110008ED0000089800002098060020DA
:1001C00098020020980200204FF0000200B513466C
:1001D00094469646203922BFA0E80C50A0E80C5067
:1001E000B1F12001BFF4F7AF090728BFA0E80C5018
:1001F00048BF0CC05DF804EB890028BF40F8042B11
:1002000008BF704748BF20F8022B11F0804F18BF7D
:1002100000F8012B7047704770477047754600F033
:100220002BF8AE4605006946534620F00700854688
:1002300018B020B5FFF7B6FFBDE820404FF000062C
:100240004FF000074FF000084FF0000BAC46ACE851
:10025000C009ACE8C009ACE8C009ACE8C00921F0AD
:1002600007018D46704710B50446AFF30080204665
:10027000BDE81040FFF781BF00487047180000201C
:1002800001491820ABBEFEE72600020070470000BF
:10029000FEE700007047000080B540F60000C4F2A1
:1002A00001004FF4806100F03DF94FF40060BDE8BB
:1002B000804000F017B80000B0B5044600F040F9E7
:1002C000054640F20000C2F200000078611C18BF31
:1002D000044400BF00F034F9401BA042FAD3B0BD83
:1002E0007047000040F21441C4F201010A68024262
:1002F00014BF08607047FFF7F3BF00002DE9F04F0F
:1003000082B00E68002E00F0038140F20C4C41F2E6
:1003100000424FF6FF7EC4F2010CC4F20102042732
:1003200000240123C1F2100E4FF0000A4FF0000923
:10033000904208BF0327009745E000BF012704F063
:100340000C030F229A402BEA020207FA03F34FEA4A
:100350009A051A4346F82520D1F804B040F200452A
:10036000C4F201055FEACB322A6854BF22EA0802D0
:1003700042EA08022A606A685FEA8B3354BF22EAC5
:10038000080242EA08026A605FEACB23AA6854BF07
:1003900022EA080242EA08025FEA8B23AA60DCF83C
:1003A00000204FF0010354BF22EA080242EA08028B
:1003B000CCF800200E680AF1010A36FA0AF204F1BC
:1003C000040400F0A58003FA0AF816EA080FF1D039
:1003D0004E68764512DC122E56D8DFE806F0350B53
:1003E0004549555555555555555555555555554DE1
:1003F000510000BFD1F80C9046E000BF4FF6FF72ED
:10040000C1F2210296420FDC0022C1F21102964293
:100410001AD00022C1F21202964215D00022C1F277
:100420002102964210D02FE00022C1F22202964211
:100430000AD00022C1F23102964205D00022C1F258
:100440003202964220D100BF8A684AB1012A14BF05
:10045000C0F81480C0F810804FF0080914E000BF05
:100460004FF0040910E000BFCA6802F108090BE070
:100470004FF0000908E000BFCA6802F1040903E078
:10048000CA6802F10C0900BF22460646BAF1080FFD
:1004900024BF203A043637680F25954027EA050522
:1004A00009FA02F22A433260CA79D2067FF582AF96
:1004B00041F21803C4F202031A6842F001021A6002
:1004C0001A6802F001020192019A40F20042C4F25D
:1004D0000102A2F57E762AF0030256F802B040F639
:1004E0000002C4F20102904210D040F60042C4F271
:1004F000010290423FF422AF41F20002C4F2010235
:10050000009F904208BF022719E700BF002716E7A7
:1005100002B0BDE8F08F00008068084018BF0120DD
:1005200070470000C26802EA0103914341EA0341B7
:1005300001617047002A08BF09040161704700008B
:1005400040F29000C2F200000068704740F20000E4
:1005500040F29001C2F20000C2F2000100780A6885
:10056000104408607047000080B542F20000C4F2F9
:100570000200016841F010010160032000F08EF8D4
:100580000F2000F005F800F027F8002080BD0000E3
:1005900070B540F20006C2F2000640F2080132785F
:1005A000C2F200014FF47A730968B3FBF2F2044619
:1005B000B1FBF2F1084600F03BFB0F2C4FF00105B8
:1005C00008D838B94FF0FF3021460022002500F04E
:1005D00039F87460284670BD82B041F21800C4F248
:1005E00002000168022241F001010160016801F08E
:1005F000010101910199416841F0805141604068D9
:1006000000F08050009000980420C4F201000168BE
:1006100062F31A61016002B070470000002848BF11
:100620007047C1B200F01F00012202FA00F04EF242
:100630000012CEF2000242EAD10121F0030108606B
:100640007047000010B54EF60C5CCEF2000CDCF8E2
:100650000030C3F3022E8EF00704042C28BF0424BC
:10066000BEF103034FF0FF3E0EFA04F438BF00233F
:10067000A14399400EFA03F39A43114300F00F028D
:1006800000F160430901043A03F564436244002821
:1006900048BF02F10C03197010BD00004EF60C515A
:1006A000CEF200010A684FF6FF031A4060F30A22F7
:1006B00042F0806040F0FD70086070472DE9F04323
:1006C00081B0002800F0858042F20008C4F20208E0
:1006D0000446D8F800000D4600F0070088420CD20E
:1006E000D8F8000020F007002843C8F80000D8F828
:1006F000000000F00700A8426BD1206841F2040915
:100700008107C4F2020917D5410705D5D9F80010B1
:1007100041F4E061C9F80010010705D5D9F80010CF
:1007200041F46051C9F80010D9F80010A26821F016
:10073000F0011143C9F80010C00741D1D8F80000FA
:1007400000F00700A8420CD9D8F8000020F00700FC
:100750002843C8F80000D8F8000000F00700A842BD
:1007600037D12068410707D5D9F80010E26821F495
:10077000E0611143C9F80010000708D5D9F800005E
:10078000216920F4605040EAC100C9F80000D9F89E
:10079000002002F00C00082841F20020C0F27A008C
:1007A00050D141F6DD43C2F38341C0F60003595CEA
:1007B000D2033BD440F60010C0F23D00484341E074
:1007C000606802280AD001282AD159F8041C89033C
:1007D00008D4012001B0BDE8F08300BF59F8041C23
:1007E0008901F6D5D9F8001021F003010843C9F8B2
:1007F0000000FFF7A5FE064641F28837D9F8000051
:10080000616800F00C00B0EB810F97D0FFF798FE05
:10081000801BB842F2D9032001B0BDE8F08300BFCD
:1008200059F8041C8907D4D5DCE700BFD9F80020AB
:1008300041F6BA43C2F34042C0F600039A5C484313
:10084000B0FBF2F0D9F8001041F6CD42C1F303112C
:10085000C0F60002515C40F2080220FA01F140F2B9
:100860000400C2F200000068C2F200021160FFF74B
:100870008FFE002001B0BDE8F08300002DE9F041BB
:1008800082B0002868D00446007841F20006C00714
:10089000C4F2020625D0706800F00C0004281BD0BA
:1008A000706800F00C00082802D17068C00313D4EF
:1008B0006068002800F06881B0F5A02F00F07C810E
:1008C000B0F5803F00F07C81306820F480303060EB
:1008D000306820F4802076E13068800301D56068BC
:1008E000D0B32078800718D5706810F00C0F07D0AF
:1008F000706800F00C0008286ED17068C0036BD4DB
:100900003068800702D52069012825D130686169E7
:1009100020F0F80040EAC1003060207800071FD4C2
:100920002078400732D4E56995B1706800F00C007A
:10093000082840F08F80012D0ED07068216A00F4E5
:1009400080328A4208D1616A00F47010884203D173
:10095000002002B0BDE8F081012002B0BDE8F081C6
:10096000A069002862D00020C4F242200121C0F812
:100970008014FFF7E5FD0546706A800700F18C8062
:10098000FFF7DEFD401B0228F6D92AE1F06910F0DE
:10099000805808D1F06940F08050F061F06900F0B3
:1009A00080500090009847F20007C4F200073868B2
:1009B000C00529D4386840F480703860FFF7C0FD66
:1009C000054600BF3868C0051ED4FFF7B9FD401BBF
:1009D0006428F7D905E100BF2069002840F2000033
:1009E000C4F2422000F0828001210160FFF7A8FDDF
:1009F000054600BF306880073FF588AFFFF7A0FDD0
:100A0000401B0228F6D9ECE0E068002800F0808066
:100A1000052800F09780012800F09880306A20F0C7
:100A200001003062306A20F0040092E00020C4F23D
:100A300042200021C0F88014FFF782FD054600BF68
:100A4000706A80077FF56CAFFFF77AFD401B0228C4
:100A5000F6D9C6E00027C4F2422700203866FFF727
:100A60006FFD022D05460BD13068800140F1BE803C
:100A7000FFF766FD401B02284FF00300F4D968E73A
:100A8000306880017FF564AFFFF75AFD401B0228F4
:100A90004FF00300F4D95CE740F20800C2F2000016
:100AA000006844F6D351C1F26201A0FB0101480A7B
:100AB000019000BF00BF0198411E002801913FF442
:100AC0002FAF00BF0198411E002801913FF428AFCD
:100AD00000BF0198411E002801913FF421AF00BFE3
:100AE0000198411E00280191E4D119E7002101601D
:100AF000FFF726FD054600BF306880077FF50DAF84
:100B0000FFF71EFD401B02284FF00300F4D920E739
:100B1000306A20F001003062306A20F00400306258
:100B2000FFF70EFD054641F2883700BF306A8007A7
:100B300020D5FFF705FD401BB8424FF00300F5D963
:100B400007E700BF306A40F004003062306A40F0CE
:100B500001003062FFF7F4FC054641F2883700BF20
:100B6000306A800706D4FFF7EBFC401BB842F7D988
:100B700037E000BFB8F1000F7FF4D5AEF06920F088
:100B80008050F061CFE600BF306820F480303060E4
:100B9000306820F480203060FFF7D2FC054600BFAB
:100BA000306880037FF59DAEFFF7CAFC401B6428C8
:100BB0004FF00300F4D9CCE6306840F48020306078
:100BC000306840F480303060FFF7BAFC054600BF63
:100BD000306880033FF585AEFFF7B2FC401B642808
:100BE000F6D9032002B0BDE8F08100BF206AB0F55D
:100BF000803F05D17168A26821F400311143716012
:100C00007168626A21F47411114308437060012015
:100C10003866FFF795FC0446306880013FF598AED2
:100C2000FFF78EFC001B02284FF00300F4D990E67A
:100C3000411E0020B0EB116F1CBF012070474EF227
:100C40001002CEF2000251604EF62351CEF20001A6
:100C5000F0230B700721906011607047FEE70000E1
:100C6000F0B581B040F60044C4F2010420461021E2
:100C70000022FFF75FFC204620210022FFF75AFCEC
:100C8000204640210022FFF755FC2046802100220B
:100C9000FFF750FC20460121FFF73EFC07462046A7
:100CA0000221FFF739FC054620460421FFF734FCFA
:100CB000064620460821FFF72FFC002F18BF002D05
:100CC00040F0D8809620FFF7F7FA20461021012245
:100CD000FFF730FC204620210122FFF72BFC2046A5
:100CE00040210122FFF726FC204680210122FFF748
:100CF00021FC2046102100220025FFF71BFC204686
:100D00000121FFF709FC002800F0BE8020460221E7
:100D1000FFF702FC002800F0B98020460421FFF70D
:100D2000FBFB002800F0B48020460821FFF7F4FB0D
:100D3000002800F0AF802046102101220125FFF796
:100D4000F9FB204620210122FFF7F4FB2046402139
:100D50000122FFF7EFFB204680210122FFF7EAFB8B
:100D60002046202100220026FFF7E4FB2046012137
:100D7000FFF7D2FB002800F08F8020460221FFF70A
:100D8000CBFB002800F08E8020460421FFF7C4FB37
:100D9000002800F08B8020460821FFF7BDFB0028CB
:100DA00000F08880204610210122FFF7C3FB204677
:100DB00020210122FFF7BEFB204640210122FFF740
:100DC000B9FB204680210122FFF7B4FB20464021D9
:100DD00000220026FFF7AEFB20460121FFF79CFB17
:100DE00000286BD0204602210225FFF795FB002842
:100DF00066D020460421FFF78FFB002862D02046F2
:100E00000821FFF789FB002860D02046102101222D
:100E1000FFF790FB204620210122FFF78BFB2046A5
:100E200040210122FFF786FB204680210122FFF7A7
:100E300081FB2046802100220026FFF77BFB204615
:100E40000121FFF769FB002844D020460221FFF76B
:100E500063FB002840D020460421FFF75DFB0028FB
:100E60003ED020460821FFF757FB48B9032503264B
:100E700012E000BF002E3FF425AF00283FF422AF60
:100E80006E2001B0F0BD00BF002605E0012602E0A3
:100E9000022600E00326002513A000EB8500805DFC
:100EA00001B0F0BD01250126F6E700BF02260125AD
:100EB000F2E700BF03260125EEE700BF0225EBE7BE
:100EC0000126E9E702250226E6E700BF0326022500
:100ED000E2E700BF0325DFE701260325DCE700BFCB
:100EE00002260325D8E700BF3738392F3435362A94
:100EF0003132332D43303D2B80B5012000F0E4F832
:100F00000220BDE88040FFF7D7B90000B0B5054624
:100F100040F600400C46C4F201004FF4007100227C
:100F2000FFF708FB45B1012D18BFB0BDC02020441C
:100F3000BDE8B04000F0C8B880202044BDE8B04013
:100F400000F0C2B810B540F60044C4F201042046D7
:100F50004FF480510022FFF7EDFA20464FF4005184
:100F60000022FFF7E7FA20464FF480410022FFF706
:100F7000E1FA20464FF400410022FFF7DBFA204659
:100F80004FF400710022FFF7D5FA20464FF480514C
:100F90000122FFF7CFFA20464FF400510122FFF75C
:100FA000C9FA20464FF480410022FFF7C3FA2046D9
:100FB0004FF400410022FFF7BDFA20464FF4806154
:100FC0000122FFF7B7FA0120FFF776F920464FF428
:100FD00080610022FFF7AEFA0120FFF76DF920468D
:100FE0004FF480610122FFF7A5FA0120FFF764F9B1
:100FF00020464FF480610022FFF79CFA0120FFF7A2
:101000005BF920464FF480610122FFF793FA01203B
:10101000FFF752F920464FF480610022FFF78AFA69
:101020000120FFF749F920464FF480510022FFF7D5
:1010300081FA20464FF400510122FFF77BFA204647
:101040004FF480410022FFF775FA20464FF400412B
:101050000022FFF76FFA20464FF480610122FFF76C
:1010600069FA0120FFF728F920464FF48061002239
:10107000FFF760FA0120FFF71FF9282000F024F89D
:101080000C2000F021F8062000F01EF80120BDE839
:10109000104000F019B80000B0B540F60045C4F2A9
:1010A0000105044628464FF400710122FFF742FA79
:1010B000204600F009F828464FF400710022BDE8F0
:1010C000B040FFF737BA0000B0B540F60044C4F2B4
:1010D00001040546C0F3001220464FF48051FFF78B
:1010E00029FAC5F3401220464FF40051FFF722FAC7
:1010F000C5F3801220464FF48041FFF71BFAC5F379
:10110000C01220464FF40041FFF714FA20464FF476
:1011100080610122FFF70EFA0120FFF7CDF820468B
:101120004FF480610022FFF705FA0120FFF7C4F8B1
:1011300005F0010220464FF48051FFF7FBF9C5F39B
:10114000400220464FF40051FFF7F4F9C5F3800246
:1011500020464FF48041FFF7EDF9C5F3C002204669
:101160004FF40041FFF7E6F920464FF48061012279
:10117000FFF7E0F90120FFF79FF820464FF4806168
:101180000022FFF7D7F90120BDE8B040FFF794B87F
:1011900070B50578002D08BF70BD40F60044C4F25C
:1011A0000104461E20464FF400710122FFF7C2F9E8
:1011B0002846FFF789FF20464FF400710022FFF711
:1011C000B9F9B5780136002DECD170BDFEE700000D
:1011D000FEE700007047000070470000FFF7B6B957
:1011E00070470000FEE700002DE9F04140F278076B
:1011F0000FF2D008C2F2000736A53AA608E000BFF9
:10120000D7E90010BC602044814208BFBDE8F081EE
:10121000FFF772FE4046FFF7BBFFFFF721FD0024FA
:1012200002E000BFFFF71CFD3D280FD0A0F1300108
:10123000C9B20929F6D8C0B204EB840100EB410120
:10124000A1F13004FFF728FFECE700BF3C60FFF797
:1012500053FE2846FFF79CFFFFF702FD002401E044
:10126000FFF7FEFC3D280FD0A0F13001C9B20929DB
:10127000F6D8C0B204EB840100EB4101A1F13004C7
:10128000FFF70AFFECE700BF7C60FFF735FE304652
:10129000FFF77EFFFFF7E4FC002401E0FFF7E0FC2E
:1012A0003D28ADD0A0F13001C9B20929F6D8C0B2AD
:1012B00004EB840100EB4101A1F13004FFF7ECFEE7
:1012C000ECE700BF4E6861702064656E20646F3A81
:1012D000000000004E6861702064656E2078616EC9
:1012E000683A00004E6861702064656E2076616E19
:1012F000673A0000002818BF7047B0B540F60044B8
:10130000C4F20104204604210122FFF713F940F240
:101310000C05C2F20005287800F0BCFB012000F0AB
:101320002FFB0120FEF7C8FF204604210022FFF713
:1013300001F9204604210122FFF7FCF8687800F04B
:10134000A9FB022000F01CFB0120FEF7B5FF2046A0
:1013500004210022FFF7EEF8204604210122FFF7C6
:10136000E9F8A87800F096FB042000F009FB0120C2
:10137000FEF7A2FF204604210022FFF7DBF82046FB
:1013800004210122FFF7D6F8E87800F083FB08205B
:1013900000F0F6FA0120FEF78FFF2046042100221C
:1013A000FFF7C8F8204604210122FFF7C3F8287987
:1013B00000F070FB102000F0E3FA0120FEF77CFF44
:1013C000204604210022FFF7B5F82046042101221F
:1013D000FFF7B0F8687900F05DFB202000F0D0FA4C
:1013E0000120FEF769FF204604210022FFF7A2F842
:1013F000204604210122FFF79DF8A87900F04AFB5E
:10140000402000F0BDFA0120FEF756FF20460421DF
:101410000022FFF78FF8204604210122FFF78AF807
:10142000E87900F037FB802000F0AAFA0120FEF7EF
:1014300043FF204604210022BDE8B040FFF77AB800
:1014400090B0FFF791F806AC201D2421FEF7BCFEFA
:101450000220069001200A9010200B9000252046C3
:101460000D95FFF70BFA28B1EFF3108072B600BFAD
:10147000FEE700BF4FF00F0901A80021CDE901955B
:10148000CDE903550595FFF719F928B1EFF3108061
:1014900072B600BFFEE700BF41F21800C4F20200BE
:1014A000016840F6000441F0040101600168C4F2E3
:1014B000010401F00401069106990168002241F03F
:1014C00008010160006840F2FF7100F0080006901A
:1014D000069820464FF00008FFF72CF804F58066C8
:1014E00030464FF2F06100224FF2F06AFFF722F827
:1014F00040F2FF300690032006AD012709902046F8
:101500002946CDE90778FEF7F9FE30462946CDE9B0
:1015100006980897FEF7F2FE4FF00209304629467A
:10152000CDE906A7CDF82080CDF82490FEF7E6FEA1
:101530004FF4806006A981E8810320462946FEF722
:10154000DDFE4FF4006006900020C1F22100CDE9DD
:10155000070720462946FEF7D1FE28200021002259
:10156000FFF770F82820FFF759F8FFF7EBFC4FF46E
:10157000FA70FEF7A1FEFFF737FEFFF7BDFC41F65C
:10158000FA40C0F60000FFF703FE01200021FFF73C
:10159000BDFC41F6ED40C0F60000FFF7F9FD40F25A
:1015A000780746F2676941F6BC4AC2F20007C6F204
:1015B0006669C0F6000A05E0BA6811448842A8BF0F
:1015C000C7F80C8020464FF48061FEF7A5FF012884
:1015D00040F09A81F8687A68002865D4904263DA0E
:1015E000204601210122FEF7A5FF2046022100220C
:1015F000FEF7A0FF204604210022FEF79BFF2046B5
:1016000008210022FEF796FF204610210022FEF757
:1016100091FF204620210122FEF78CFF20464FF447
:1016200000710122FEF786FFF968D7E90002013157
:10163000431A83FB0906B01000EBD67606EB860052
:10164000A3EB40001AF80000551AC7E903157B61A7
:1016500000F0AAFA1AF8060000F0A6FA85FB0901C4
:10166000881000EBD17606EB8600A5EB40001AF857
:10167000000000F099FA1AF8060000F095FA2046EA
:101680004FF480710122FEF755FF20464FF4807120
:101690000022FEF74FFF0020FFF72CFE4FF47A7078
:1016A000FEF70AFE7A68F868396890425CDB884287
:1016B0005ADA204601210022FEF73CFF2046022193
:1016C0000122FEF737FF204604210022FEF732FFF9
:1016D000204608210022FEF72DFF2046102100227F
:1016E000FEF728FF204620210122FEF723FF204697
:1016F0004FF400710122FEF71DFFF968D7E90102DE
:101700000131521A104480FB0923C7E903109910D4
:1017100001EBD37606EB8601A0EB41011AF80150EC
:101720007861284600F040FA1AF80660304600F06A
:101730003BFA284600F038FA304600F035FA2046E9
:101740004FF480710122FEF7F5FE20464FF48071C0
:101750000022FEF7EFFE0020FFF7CCFD4FF47A7079
:10176000FEF7AAFD3968F868884266DB7A680A44A1
:10177000904262DA204601210022FEF7DBFE20467D
:1017800002210022FEF7D6FE204604210122FEF7A8
:10179000D1FE204608210122FEF7CCFE2046102172
:1017A0000022FEF7C7FE204620210022FEF7C2FEDF
:1017B00020464FF400710022FEF7BCFEF968D7E91D
:1017C00000020131521A024482FB0936431A1D18E5
:1017D000B01000EBD67606EB8600A2EB40001AF8BC
:1017E0000000C7E903157A6100F0DEF91AF8060077
:1017F00000F0DAF985FB0901881000EBD17606EBE1
:101800008600A5EB40001AF8000000F0CDF91AF8A8
:10181000060000F0C9F920464FF480710122FEF75E
:1018200089FE20464FF480710022FEF783FE4FF4BC
:101830007A70FEF741FD3968F8687A681144884289
:10184000FFF6BAAEBA680A449042BFF6B5AE20467B
:1018500001210022FEF76EFE204602210022FEF743
:1018600069FE204604210122FEF764FE204608217D
:101870000022FEF75FFE204610210122FEF75AFEED
:10188000204620210022FEF755FE20464FF400712D
:101890000022FEF74FFEFA6897E80B00D643334468
:1018A0001944084480FB0913511CC7E9031099101F
:1018B00001EBD37606EB8601A0EB41011AF801504B
:1018C0007861284600F070F91AF80660304600F09A
:1018D0006BF9284600F068F9304600F065F92046BB
:1018E0004FF480710122FEF725FE20464FF48071EF
:1018F0000022FEF71FFE4FF47A70FEF7DDFCD7E9F9
:101900000012F868114457E620460221FEF70AFE4D
:1019100020461021FEF706FE204601210022FEF798
:1019200009FE204604210022FEF704FE204608217D
:101930000022FEF7FFFD204620210022FEF7FAFDDF
:10194000C02000F031F9C02000F02EF9C02000F0D6
:101950002BF9C02000F028F920464FF480710122B5
:10196000FEF7E8FD20464FF480710022FEF7E2FD0D
:101970004FF47A70FEF7A0FCC7F80C8022E6000056
:1019800070B540F60044C4F20104054600F0800240
:1019900020460221FEF7CEFD204601210122FEF75E
:1019A000C9FD204601210022FEF7C4FD802606EA7B
:1019B000450220460221FEF7BDFD204601210122FD
:1019C000FEF7B8FD204601210022FEF7B3FD06EA2E
:1019D000850220460221FEF7ADFD204601210122AD
:1019E000FEF7A8FD204601210022FEF7A3FD06EA2E
:1019F000C50220460221FEF79DFD2046012101225D
:101A0000FEF798FD204601210022FEF793FD06EA2D
:101A1000051220460221FEF78DFD204601210122FC
:101A2000FEF788FD204601210022FEF783FD06EA2D
:101A3000451220460221FEF77DFD204601210122AC
:101A4000FEF778FD204601210022FEF773FD06EA2D
:101A5000851220460221FEF76DFD2046012101225C
:101A6000FEF768FD204601210022FEF763FDE80134
:101A7000C2B220460221FEF75DFD2046012101226F
:101A8000FEF758FD204601210022BDE87040FEF718
:101A900051BD000070B540F60044C4F20104054693
:101AA00000F0800220461021FEF744FD2046082168
:101AB0000122FEF73FFD204608210022FEF73AFDF5
:101AC000802606EA450220461021FEF733FD204617
:101AD00008210122FEF72EFD204608210022FEF7F4
:101AE00029FD06EA850220461021FEF723FD204647
:101AF00008210122FEF71EFD204608210022FEF7E4
:101B000019FD06EAC50220461021FEF713FD204606
:101B100008210122FEF70EFD204608210022FEF7D3
:101B200009FD06EA051220461021FEF703FD2046B6
:101B300008210122FEF7FEFC204608210022FEF7C4
:101B4000F9FC06EA451220461021FEF7F3FC204678
:101B500008210122FEF7EEFC204608210022FEF7B4
:101B6000E9FC06EA851220461021FEF7E3FC204638
:101B700008210122FEF7DEFC204608210022FEF7A4
:101B8000D9FCE801C2B220461021FEF7D3FC204662
:101B900008210122FEF7CEFC204608210022BDE8E4
:101BA0007040FEF7C7BC000070B540F60004C4F2F8
:101BB0000104054600F0800220464021FEF7BAFCF1
:101BC0002046802101228026FEF7B4FC2046802199
:101BD0000022FEF7AFFC06EA450220464021FEF750
:101BE000A9FC204680210122FEF7A4FC204680218A
:101BF0000022FEF79FFC06EA850220464021FEF700
:101C000099FC204680210122FEF794FC2046802189
:101C10000022FEF78FFC06EAC50220464021FEF7AF
:101C200089FC204680210122FEF784FC2046802189
:101C30000022FEF77FFC06EA051220464021FEF74F
:101C400079FC204680210122FEF774FC2046802189
:101C50000022FEF76FFC06EA451220464021FEF7FF
:101C600069FC204680210122FEF764FC2046802189
:101C70000022FEF75FFC06EA851220464021FEF7AF
:101C800059FC204680210122FEF754FC2046802189
:101C90000022FEF74FFCE801C2B220464021FEF7C9
:101CA00049FC204680210122FEF744FC2046802189
:101CB0000022BDE87040FEF73DBC0102C0F9A4B0AF
:101CC000999282F880908883C6A1868E8F0000004A
:101CD00000000000000102030406070809020304D3
:101CE00005060708090A0B0C0D0E0F101043687546
:101CF0006F6E67207472696E68004261742064615F
:101D00007520636861790000281D0008000000202C
:101D10001800000028010008401D000818000020DD
:101D200080060000440100080100000010000000CF
:101D30000024F400F6ECD90303D9ECF6000000000F
:04000005080000ED02
:00000001FF
